{
  "_format": "hh-sol-artifact-1",
  "contractName": "CyberWojakz",
  "sourceName": "contracts/CyberWojakz.sol",
  "abi": [
    {
      "inputs": [
        {
          "internalType": "string",
          "name": "uri",
          "type": "string"
        },
        {
          "internalType": "bytes32",
          "name": "merkleroot",
          "type": "bytes32"
        },
        {
          "internalType": "address",
          "name": "_proxyRegistryAddress",
          "type": "address"
        }
      ],
      "stateMutability": "nonpayable",
      "type": "constructor"
    },
    {
      "anonymous": false,
      "inputs": [
        {
          "indexed": true,
          "internalType": "address",
          "name": "owner",
          "type": "address"
        },
        {
          "indexed": true,
          "internalType": "address",
          "name": "approved",
          "type": "address"
        },
        {
          "indexed": true,
          "internalType": "uint256",
          "name": "tokenId",
          "type": "uint256"
        }
      ],
      "name": "Approval",
      "type": "event"
    },
    {
      "anonymous": false,
      "inputs": [
        {
          "indexed": true,
          "internalType": "address",
          "name": "owner",
          "type": "address"
        },
        {
          "indexed": true,
          "internalType": "address",
          "name": "operator",
          "type": "address"
        },
        {
          "indexed": false,
          "internalType": "bool",
          "name": "approved",
          "type": "bool"
        }
      ],
      "name": "ApprovalForAll",
      "type": "event"
    },
    {
      "anonymous": false,
      "inputs": [
        {
          "indexed": true,
          "internalType": "contract IERC20",
          "name": "token",
          "type": "address"
        },
        {
          "indexed": false,
          "internalType": "address",
          "name": "to",
          "type": "address"
        },
        {
          "indexed": false,
          "internalType": "uint256",
          "name": "amount",
          "type": "uint256"
        }
      ],
      "name": "ERC20PaymentReleased",
      "type": "event"
    },
    {
      "anonymous": false,
      "inputs": [
        {
          "indexed": true,
          "internalType": "address",
          "name": "previousOwner",
          "type": "address"
        },
        {
          "indexed": true,
          "internalType": "address",
          "name": "newOwner",
          "type": "address"
        }
      ],
      "name": "OwnershipTransferred",
      "type": "event"
    },
    {
      "anonymous": false,
      "inputs": [
        {
          "indexed": false,
          "internalType": "address",
          "name": "account",
          "type": "address"
        },
        {
          "indexed": false,
          "internalType": "uint256",
          "name": "shares",
          "type": "uint256"
        }
      ],
      "name": "PayeeAdded",
      "type": "event"
    },
    {
      "anonymous": false,
      "inputs": [
        {
          "indexed": false,
          "internalType": "address",
          "name": "from",
          "type": "address"
        },
        {
          "indexed": false,
          "internalType": "uint256",
          "name": "amount",
          "type": "uint256"
        }
      ],
      "name": "PaymentReceived",
      "type": "event"
    },
    {
      "anonymous": false,
      "inputs": [
        {
          "indexed": false,
          "internalType": "address",
          "name": "to",
          "type": "address"
        },
        {
          "indexed": false,
          "internalType": "uint256",
          "name": "amount",
          "type": "uint256"
        }
      ],
      "name": "PaymentReleased",
      "type": "event"
    },
    {
      "anonymous": false,
      "inputs": [
        {
          "indexed": true,
          "internalType": "address",
          "name": "from",
          "type": "address"
        },
        {
          "indexed": true,
          "internalType": "address",
          "name": "to",
          "type": "address"
        },
        {
          "indexed": true,
          "internalType": "uint256",
          "name": "tokenId",
          "type": "uint256"
        }
      ],
      "name": "Transfer",
      "type": "event"
    },
    {
      "inputs": [
        {
          "internalType": "address",
          "name": "to",
          "type": "address"
        },
        {
          "internalType": "uint256",
          "name": "tokenId",
          "type": "uint256"
        }
      ],
      "name": "approve",
      "outputs": [],
      "stateMutability": "nonpayable",
      "type": "function"
    },
    {
      "inputs": [
        {
          "internalType": "address",
          "name": "owner",
          "type": "address"
        }
      ],
      "name": "balanceOf",
      "outputs": [
        {
          "internalType": "uint256",
          "name": "",
          "type": "uint256"
        }
      ],
      "stateMutability": "view",
      "type": "function"
    },
    {
      "inputs": [],
      "name": "baseExtension",
      "outputs": [
        {
          "internalType": "string",
          "name": "",
          "type": "string"
        }
      ],
      "stateMutability": "view",
      "type": "function"
    },
    {
      "inputs": [],
      "name": "baseURI",
      "outputs": [
        {
          "internalType": "string",
          "name": "",
          "type": "string"
        }
      ],
      "stateMutability": "view",
      "type": "function"
    },
    {
      "inputs": [
        {
          "internalType": "uint256",
          "name": "tokenId",
          "type": "uint256"
        }
      ],
      "name": "getApproved",
      "outputs": [
        {
          "internalType": "address",
          "name": "",
          "type": "address"
        }
      ],
      "stateMutability": "view",
      "type": "function"
    },
    {
      "inputs": [],
      "name": "getPriceExt",
      "outputs": [
        {
          "internalType": "uint256",
          "name": "",
          "type": "uint256"
        }
      ],
      "stateMutability": "view",
      "type": "function"
    },
    {
      "inputs": [
        {
          "internalType": "address",
          "name": "owner",
          "type": "address"
        },
        {
          "internalType": "address",
          "name": "operator",
          "type": "address"
        }
      ],
      "name": "isApprovedForAll",
      "outputs": [
        {
          "internalType": "bool",
          "name": "",
          "type": "bool"
        }
      ],
      "stateMutability": "view",
      "type": "function"
    },
    {
      "inputs": [],
      "name": "maxSupply",
      "outputs": [
        {
          "internalType": "uint256",
          "name": "",
          "type": "uint256"
        }
      ],
      "stateMutability": "view",
      "type": "function"
    },
    {
      "inputs": [],
      "name": "name",
      "outputs": [
        {
          "internalType": "string",
          "name": "",
          "type": "string"
        }
      ],
      "stateMutability": "view",
      "type": "function"
    },
    {
      "inputs": [],
      "name": "owner",
      "outputs": [
        {
          "internalType": "address",
          "name": "",
          "type": "address"
        }
      ],
      "stateMutability": "view",
      "type": "function"
    },
    {
      "inputs": [
        {
          "internalType": "uint256",
          "name": "tokenId",
          "type": "uint256"
        }
      ],
      "name": "ownerOf",
      "outputs": [
        {
          "internalType": "address",
          "name": "",
          "type": "address"
        }
      ],
      "stateMutability": "view",
      "type": "function"
    },
    {
      "inputs": [],
      "name": "paused",
      "outputs": [
        {
          "internalType": "bool",
          "name": "",
          "type": "bool"
        }
      ],
      "stateMutability": "view",
      "type": "function"
    },
    {
      "inputs": [
        {
          "internalType": "uint256",
          "name": "index",
          "type": "uint256"
        }
      ],
      "name": "payee",
      "outputs": [
        {
          "internalType": "address",
          "name": "",
          "type": "address"
        }
      ],
      "stateMutability": "view",
      "type": "function"
    },
    {
      "inputs": [],
      "name": "presaleM",
      "outputs": [
        {
          "internalType": "bool",
          "name": "",
          "type": "bool"
        }
      ],
      "stateMutability": "view",
      "type": "function"
    },
    {
      "inputs": [],
      "name": "price",
      "outputs": [
        {
          "internalType": "uint256",
          "name": "",
          "type": "uint256"
        }
      ],
      "stateMutability": "view",
      "type": "function"
    },
    {
      "inputs": [],
      "name": "publicM",
      "outputs": [
        {
          "internalType": "bool",
          "name": "",
          "type": "bool"
        }
      ],
      "stateMutability": "view",
      "type": "function"
    },
    {
      "inputs": [
        {
          "internalType": "uint256",
          "name": "_amount",
          "type": "uint256"
        }
      ],
      "name": "publicSaleMint",
      "outputs": [],
      "stateMutability": "payable",
      "type": "function"
    },
    {
      "inputs": [
        {
          "internalType": "address payable",
          "name": "account",
          "type": "address"
        }
      ],
      "name": "release",
      "outputs": [],
      "stateMutability": "nonpayable",
      "type": "function"
    },
    {
      "inputs": [
        {
          "internalType": "contract IERC20",
          "name": "token",
          "type": "address"
        },
        {
          "internalType": "address",
          "name": "account",
          "type": "address"
        }
      ],
      "name": "release",
      "outputs": [],
      "stateMutability": "nonpayable",
      "type": "function"
    },
    {
      "inputs": [
        {
          "internalType": "contract IERC20",
          "name": "token",
          "type": "address"
        },
        {
          "internalType": "address",
          "name": "account",
          "type": "address"
        }
      ],
      "name": "released",
      "outputs": [
        {
          "internalType": "uint256",
          "name": "",
          "type": "uint256"
        }
      ],
      "stateMutability": "view",
      "type": "function"
    },
    {
      "inputs": [
        {
          "internalType": "address",
          "name": "account",
          "type": "address"
        }
      ],
      "name": "released",
      "outputs": [
        {
          "internalType": "uint256",
          "name": "",
          "type": "uint256"
        }
      ],
      "stateMutability": "view",
      "type": "function"
    },
    {
      "inputs": [],
      "name": "renounceOwnership",
      "outputs": [],
      "stateMutability": "nonpayable",
      "type": "function"
    },
    {
      "inputs": [],
      "name": "reveal",
      "outputs": [],
      "stateMutability": "nonpayable",
      "type": "function"
    },
    {
      "inputs": [],
      "name": "revealed",
      "outputs": [
        {
          "internalType": "bool",
          "name": "",
          "type": "bool"
        }
      ],
      "stateMutability": "view",
      "type": "function"
    },
    {
      "inputs": [],
      "name": "root",
      "outputs": [
        {
          "internalType": "bytes32",
          "name": "",
          "type": "bytes32"
        }
      ],
      "stateMutability": "view",
      "type": "function"
    },
    {
      "inputs": [
        {
          "internalType": "address",
          "name": "from",
          "type": "address"
        },
        {
          "internalType": "address",
          "name": "to",
          "type": "address"
        },
        {
          "internalType": "uint256",
          "name": "tokenId",
          "type": "uint256"
        }
      ],
      "name": "safeTransferFrom",
      "outputs": [],
      "stateMutability": "nonpayable",
      "type": "function"
    },
    {
      "inputs": [
        {
          "internalType": "address",
          "name": "from",
          "type": "address"
        },
        {
          "internalType": "address",
          "name": "to",
          "type": "address"
        },
        {
          "internalType": "uint256",
          "name": "tokenId",
          "type": "uint256"
        },
        {
          "internalType": "bytes",
          "name": "_data",
          "type": "bytes"
        }
      ],
      "name": "safeTransferFrom",
      "outputs": [],
      "stateMutability": "nonpayable",
      "type": "function"
    },
    {
      "inputs": [
        {
          "internalType": "address",
          "name": "operator",
          "type": "address"
        },
        {
          "internalType": "bool",
          "name": "approved",
          "type": "bool"
        }
      ],
      "name": "setApprovalForAll",
      "outputs": [],
      "stateMutability": "nonpayable",
      "type": "function"
    },
    {
      "inputs": [
        {
          "internalType": "string",
          "name": "_newBaseExtension",
          "type": "string"
        }
      ],
      "name": "setBaseExtension",
      "outputs": [],
      "stateMutability": "nonpayable",
      "type": "function"
    },
    {
      "inputs": [
        {
          "internalType": "string",
          "name": "_tokenBaseURI",
          "type": "string"
        }
      ],
      "name": "setBaseURI",
      "outputs": [],
      "stateMutability": "nonpayable",
      "type": "function"
    },
    {
      "inputs": [
        {
          "internalType": "bytes32",
          "name": "merkleroot",
          "type": "bytes32"
        }
      ],
      "name": "setMerkleRoot",
      "outputs": [],
      "stateMutability": "nonpayable",
      "type": "function"
    },
    {
      "inputs": [
        {
          "internalType": "uint256",
          "name": "newprice",
          "type": "uint256"
        }
      ],
      "name": "setPrice",
      "outputs": [],
      "stateMutability": "nonpayable",
      "type": "function"
    },
    {
      "inputs": [
        {
          "internalType": "address",
          "name": "account",
          "type": "address"
        }
      ],
      "name": "shares",
      "outputs": [
        {
          "internalType": "uint256",
          "name": "",
          "type": "uint256"
        }
      ],
      "stateMutability": "view",
      "type": "function"
    },
    {
      "inputs": [
        {
          "internalType": "bytes4",
          "name": "interfaceId",
          "type": "bytes4"
        }
      ],
      "name": "supportsInterface",
      "outputs": [
        {
          "internalType": "bool",
          "name": "",
          "type": "bool"
        }
      ],
      "stateMutability": "view",
      "type": "function"
    },
    {
      "inputs": [],
      "name": "symbol",
      "outputs": [
        {
          "internalType": "string",
          "name": "",
          "type": "string"
        }
      ],
      "stateMutability": "view",
      "type": "function"
    },
    {
      "inputs": [],
      "name": "togglePause",
      "outputs": [],
      "stateMutability": "nonpayable",
      "type": "function"
    },
    {
      "inputs": [],
      "name": "togglePublicSale",
      "outputs": [],
      "stateMutability": "nonpayable",
      "type": "function"
    },
    {
      "inputs": [
        {
          "internalType": "uint256",
          "name": "tokenId",
          "type": "uint256"
        }
      ],
      "name": "tokenURI",
      "outputs": [
        {
          "internalType": "string",
          "name": "",
          "type": "string"
        }
      ],
      "stateMutability": "view",
      "type": "function"
    },
    {
      "inputs": [
        {
          "internalType": "contract IERC20",
          "name": "token",
          "type": "address"
        }
      ],
      "name": "totalReleased",
      "outputs": [
        {
          "internalType": "uint256",
          "name": "",
          "type": "uint256"
        }
      ],
      "stateMutability": "view",
      "type": "function"
    },
    {
      "inputs": [],
      "name": "totalReleased",
      "outputs": [
        {
          "internalType": "uint256",
          "name": "",
          "type": "uint256"
        }
      ],
      "stateMutability": "view",
      "type": "function"
    },
    {
      "inputs": [],
      "name": "totalShares",
      "outputs": [
        {
          "internalType": "uint256",
          "name": "",
          "type": "uint256"
        }
      ],
      "stateMutability": "view",
      "type": "function"
    },
    {
      "inputs": [],
      "name": "totalSupply",
      "outputs": [
        {
          "internalType": "uint256",
          "name": "",
          "type": "uint256"
        }
      ],
      "stateMutability": "view",
      "type": "function"
    },
    {
      "inputs": [
        {
          "internalType": "address",
          "name": "from",
          "type": "address"
        },
        {
          "internalType": "address",
          "name": "to",
          "type": "address"
        },
        {
          "internalType": "uint256",
          "name": "tokenId",
          "type": "uint256"
        }
      ],
      "name": "transferFrom",
      "outputs": [],
      "stateMutability": "nonpayable",
      "type": "function"
    },
    {
      "inputs": [
        {
          "internalType": "address",
          "name": "newOwner",
          "type": "address"
        }
      ],
      "name": "transferOwnership",
      "outputs": [],
      "stateMutability": "nonpayable",
      "type": "function"
    },
    {
      "stateMutability": "payable",
      "type": "receive"
    }
  ],
  "bytecode": "0x61100f60115560c06040526005608081905264173539b7b760d91b60a09081526200002e91601391906200068c565b506014805463ffffffff1916815566038d7ea4c6800060155560408051608081018252602d815260208101839052600a9181019190915260608101919091526200007d9060179060046200071b565b506040805160808101825273c80731c21b5a9b3b5db86f9abcba49dd1cf6ed6e815273cc2efa16d67e559b7308bd97538ce16d196cdb4c6020820152737da33af87eff27b4b61ec9c329d5ae611d519d58918101919091527387a614b076a1021e59aba912235765f63de856416060820152620000ff9060189060046200075e565b503480156200010d57600080fd5b50604051620034b4380380620034b4833981016040819052620001309162000800565b60188054806020026020016040519081016040528092919081815260200182805480156200018857602002820191906000526020600020905b81546001600160a01b0316815260019091019060200180831162000169575b50505050506017805480602002602001604051908101604052809291908181526020018280548015620001db57602002820191906000526020600020905b815481526020019060010190808311620001c6575b5050604080518082018252600b81526a21bcb132b93bb7b530b5bd60a91b60208083019182528351808501909452600684526521a12ba525ad60d11b908401528151919550919350620002339250600091906200068c565b508051620002499060019060208401906200068c565b5050506200026662000260620003d360201b60201c565b620003d7565b60016007558051825114620002dd5760405162461bcd60e51b815260206004820152603260248201527f5061796d656e7453706c69747465723a2070617965657320616e6420736861726044820152710cae640d8cadccee8d040dad2e6dac2e8c6d60731b60648201526084015b60405180910390fd5b6000825111620003305760405162461bcd60e51b815260206004820152601a60248201527f5061796d656e7453706c69747465723a206e6f207061796565730000000000006044820152606401620002d4565b60005b82518110156200039c5762000387838281518110620003565762000356620008fb565b6020026020010151838381518110620003735762000373620008fb565b60200260200101516200042960201b60201c565b80620003938162000927565b91505062000333565b505050600f829055601080546001600160a01b0319166001600160a01b038316179055620003ca8362000617565b5050506200099d565b3390565b600680546001600160a01b038381166001600160a01b0319831681179093556040519116919082907f8be0079c531659141344cd1fd0a4f28419497f9722a3daafe3b4186f6b6457e090600090a35050565b6001600160a01b038216620004965760405162461bcd60e51b815260206004820152602c60248201527f5061796d656e7453706c69747465723a206163636f756e74206973207468652060448201526b7a65726f206164647265737360a01b6064820152608401620002d4565b60008111620004e85760405162461bcd60e51b815260206004820152601d60248201527f5061796d656e7453706c69747465723a207368617265732061726520300000006044820152606401620002d4565b6001600160a01b0382166000908152600a602052604090205415620005645760405162461bcd60e51b815260206004820152602b60248201527f5061796d656e7453706c69747465723a206163636f756e7420616c726561647960448201526a206861732073686172657360a81b6064820152608401620002d4565b600c8054600181019091557fdf6966c971051c3d54ec59162606531493a51404a002842f56009d7e5cf4a8c70180546001600160a01b0319166001600160a01b0384169081179091556000908152600a60205260409020819055600854620005ce90829062000945565b600855604080516001600160a01b0384168152602081018390527f40c340f65e17194d14ddddb073d3c9f888e3cb52b5aae0c6c7706b4fbc905fac910160405180910390a15050565b6006546001600160a01b03163314620006735760405162461bcd60e51b815260206004820181905260248201527f4f776e61626c653a2063616c6c6572206973206e6f7420746865206f776e65726044820152606401620002d4565b8051620006889060129060208401906200068c565b5050565b8280546200069a9062000960565b90600052602060002090601f016020900481019282620006be576000855562000709565b82601f10620006d957805160ff191683800117855562000709565b8280016001018555821562000709579182015b8281111562000709578251825591602001919060010190620006ec565b5062000717929150620007b6565b5090565b82805482825590600052602060002090810192821562000709579160200282015b8281111562000709578251829060ff169055916020019190600101906200073c565b82805482825590600052602060002090810192821562000709579160200282015b828111156200070957825182546001600160a01b0319166001600160a01b039091161782556020909201916001909101906200077f565b5b80821115620007175760008155600101620007b7565b634e487b7160e01b600052604160045260246000fd5b80516001600160a01b0381168114620007fb57600080fd5b919050565b6000806000606084860312156200081657600080fd5b83516001600160401b03808211156200082e57600080fd5b818601915086601f8301126200084357600080fd5b815181811115620008585762000858620007cd565b604051601f8201601f19908116603f01168101908382118183101715620008835762000883620007cd565b81604052828152602093508984848701011115620008a057600080fd5b600091505b82821015620008c45784820184015181830185015290830190620008a5565b82821115620008d65760008484830101525b8097505050508086015193505050620008f260408501620007e3565b90509250925092565b634e487b7160e01b600052603260045260246000fd5b634e487b7160e01b600052601160045260246000fd5b60006000198214156200093e576200093e62000911565b5060010190565b600082198211156200095b576200095b62000911565b500190565b600181811c908216806200097557607f821691505b602082108114156200099757634e487b7160e01b600052602260045260246000fd5b50919050565b612b0780620009ad6000396000f3fe60806040526004361061026b5760003560e01c806391b7f5ed11610144578063c6682862116100b6578063da3ef23f1161007a578063da3ef23f14610794578063e222c7f9146107b4578063e33b7de3146107c9578063e985e9c5146107de578063ebf0c717146107fe578063f2fde38b1461081457600080fd5b8063c6682862146106dd578063c87b56dd146106f2578063ce7c2ac214610712578063d5abeb0114610748578063d79779b21461075e57600080fd5b8063a22cb46511610108578063a22cb4651461063f578063a45063c01461065f578063a475b5dd14610680578063b3ab66b014610695578063b88d4fde146106a8578063c4ae3168146106c857600080fd5b806391b7f5ed146105a9578063954c6771146105c957806395d89b41146105de5780639852595c146105f3578063a035b1fe1461062957600080fd5b806348b75044116101dd5780636c0360eb116101a15780636c0360eb1461050157806370a0823114610516578063715018a6146105365780637cb647591461054b5780638b83209b1461056b5780638da5cb5b1461058b57600080fd5b806348b7504414610468578063518302271461048857806355f804b3146104a75780635c975abb146104c75780636352211e146104e157600080fd5b806318160ddd1161022f57806318160ddd1461038a57806319165587146103ad57806323b872dd146103cd5780633a98ef39146103ed578063406072a91461040257806342842e0e1461044857600080fd5b806301ffc9a7146102b957806306fdde03146102ee578063081812fc14610310578063095ea7b3146103485780631798d58b1461036a57600080fd5b366102b4577f6ef95f06320e7a25a04a175ca677b7052bdd97131872c2192525a629f51be77033604080516001600160a01b0390921682523460208301520160405180910390a1005b600080fd5b3480156102c557600080fd5b506102d96102d43660046123ae565b610834565b60405190151581526020015b60405180910390f35b3480156102fa57600080fd5b50610303610886565b6040516102e59190612423565b34801561031c57600080fd5b5061033061032b366004612436565b610918565b6040516001600160a01b0390911681526020016102e5565b34801561035457600080fd5b50610368610363366004612464565b6109b2565b005b34801561037657600080fd5b506014546102d99062010000900460ff1681565b34801561039657600080fd5b5061039f610ac8565b6040519081526020016102e5565b3480156103b957600080fd5b506103686103c8366004612490565b610ad8565b3480156103d957600080fd5b506103686103e83660046124ad565b610c06565b3480156103f957600080fd5b5060085461039f565b34801561040e57600080fd5b5061039f61041d3660046124ee565b6001600160a01b039182166000908152600e6020908152604080832093909416825291909152205490565b34801561045457600080fd5b506103686104633660046124ad565b610c37565b34801561047457600080fd5b506103686104833660046124ee565b610c52565b34801561049457600080fd5b506014546102d990610100900460ff1681565b3480156104b357600080fd5b506103686104c23660046125b3565b610e3a565b3480156104d357600080fd5b506014546102d99060ff1681565b3480156104ed57600080fd5b506103306104fc366004612436565b610e7b565b34801561050d57600080fd5b50610303610ef2565b34801561052257600080fd5b5061039f610531366004612490565b610f80565b34801561054257600080fd5b50610368611007565b34801561055757600080fd5b50610368610566366004612436565b61103d565b34801561057757600080fd5b50610330610586366004612436565b61106c565b34801561059757600080fd5b506006546001600160a01b0316610330565b3480156105b557600080fd5b506103686105c4366004612436565b61109c565b3480156105d557600080fd5b5060155461039f565b3480156105ea57600080fd5b506103036110cb565b3480156105ff57600080fd5b5061039f61060e366004612490565b6001600160a01b03166000908152600b602052604090205490565b34801561063557600080fd5b5061039f60155481565b34801561064b57600080fd5b5061036861065a36600461260a565b6110da565b34801561066b57600080fd5b506014546102d9906301000000900460ff1681565b34801561068c57600080fd5b506103686110e5565b6103686106a3366004612436565b611120565b3480156106b457600080fd5b506103686106c3366004612638565b61135c565b3480156106d457600080fd5b50610368611394565b3480156106e957600080fd5b506103036113d2565b3480156106fe57600080fd5b5061030361070d366004612436565b6113df565b34801561071e57600080fd5b5061039f61072d366004612490565b6001600160a01b03166000908152600a602052604090205490565b34801561075457600080fd5b5061039f60115481565b34801561076a57600080fd5b5061039f610779366004612490565b6001600160a01b03166000908152600d602052604090205490565b3480156107a057600080fd5b506103686107af3660046125b3565b6114bd565b3480156107c057600080fd5b506103686114fa565b3480156107d557600080fd5b5060095461039f565b3480156107ea57600080fd5b506102d96107f93660046124ee565b611545565b34801561080a57600080fd5b5061039f600f5481565b34801561082057600080fd5b5061036861082f366004612490565b611615565b60006001600160e01b031982166380ac58cd60e01b148061086557506001600160e01b03198216635b5e139f60e01b145b8061088057506301ffc9a760e01b6001600160e01b03198316145b92915050565b606060008054610895906126b8565b80601f01602080910402602001604051908101604052809291908181526020018280546108c1906126b8565b801561090e5780601f106108e35761010080835404028352916020019161090e565b820191906000526020600020905b8154815290600101906020018083116108f157829003601f168201915b5050505050905090565b6000818152600260205260408120546001600160a01b03166109965760405162461bcd60e51b815260206004820152602c60248201527f4552433732313a20617070726f76656420717565727920666f72206e6f6e657860448201526b34b9ba32b73a103a37b5b2b760a11b60648201526084015b60405180910390fd5b506000908152600460205260409020546001600160a01b031690565b60006109bd82610e7b565b9050806001600160a01b0316836001600160a01b03161415610a2b5760405162461bcd60e51b815260206004820152602160248201527f4552433732313a20617070726f76616c20746f2063757272656e74206f776e656044820152603960f91b606482015260840161098d565b336001600160a01b0382161480610a475750610a478133611545565b610ab95760405162461bcd60e51b815260206004820152603860248201527f4552433732313a20617070726f76652063616c6c6572206973206e6f74206f7760448201527f6e6572206e6f7220617070726f76656420666f7220616c6c0000000000000000606482015260840161098d565b610ac383836116b0565b505050565b6000610ad360165490565b905090565b6001600160a01b0381166000908152600a6020526040902054610b0d5760405162461bcd60e51b815260040161098d906126f3565b6000610b1860095490565b610b22904761274f565b90506000610b4f8383610b4a866001600160a01b03166000908152600b602052604090205490565b61171e565b905080610b6e5760405162461bcd60e51b815260040161098d90612767565b6001600160a01b0383166000908152600b602052604081208054839290610b9690849061274f565b925050819055508060096000828254610baf919061274f565b90915550610bbf9050838261175c565b604080516001600160a01b0385168152602081018390527fdf20fd1e76bc69d672e4814fafb2c449bba3a5369d8359adf9e05e6fde87b056910160405180910390a1505050565b610c103382611875565b610c2c5760405162461bcd60e51b815260040161098d906127b2565b610ac3838383611944565b610ac38383836040518060200160405280600081525061135c565b6001600160a01b0381166000908152600a6020526040902054610c875760405162461bcd60e51b815260040161098d906126f3565b6001600160a01b0382166000908152600d60205260408120546040516370a0823160e01b81523060048201526001600160a01b038516906370a082319060240160206040518083038186803b158015610cdf57600080fd5b505afa158015610cf3573d6000803e3d6000fd5b505050506040513d601f19601f82011682018060405250810190610d179190612803565b610d21919061274f565b90506000610d5a8383610b4a87876001600160a01b039182166000908152600e6020908152604080832093909416825291909152205490565b905080610d795760405162461bcd60e51b815260040161098d90612767565b6001600160a01b038085166000908152600e6020908152604080832093871683529290529081208054839290610db090849061274f565b90915550506001600160a01b0384166000908152600d602052604081208054839290610ddd90849061274f565b90915550610dee9050848483611ae0565b604080516001600160a01b038581168252602082018490528616917f3be5b7a71e84ed12875d241991c70855ac5817d847039e17a9d895c1ceb0f18a910160405180910390a250505050565b6006546001600160a01b03163314610e645760405162461bcd60e51b815260040161098d9061281c565b8051610e779060129060208401906122ff565b5050565b6000818152600260205260408120546001600160a01b0316806108805760405162461bcd60e51b815260206004820152602960248201527f4552433732313a206f776e657220717565727920666f72206e6f6e657869737460448201526832b73a103a37b5b2b760b91b606482015260840161098d565b60128054610eff906126b8565b80601f0160208091040260200160405190810160405280929190818152602001828054610f2b906126b8565b8015610f785780601f10610f4d57610100808354040283529160200191610f78565b820191906000526020600020905b815481529060010190602001808311610f5b57829003601f168201915b505050505081565b60006001600160a01b038216610feb5760405162461bcd60e51b815260206004820152602a60248201527f4552433732313a2062616c616e636520717565727920666f7220746865207a65604482015269726f206164647265737360b01b606482015260840161098d565b506001600160a01b031660009081526003602052604090205490565b6006546001600160a01b031633146110315760405162461bcd60e51b815260040161098d9061281c565b61103b6000611b32565b565b6006546001600160a01b031633146110675760405162461bcd60e51b815260040161098d9061281c565b600f55565b6000600c828154811061108157611081612851565b6000918252602090912001546001600160a01b031692915050565b6006546001600160a01b031633146110c65760405162461bcd60e51b815260040161098d9061281c565b601555565b606060018054610895906126b8565b610e77338383611b84565b6006546001600160a01b0316331461110f5760405162461bcd60e51b815260040161098d9061281c565b6014805461ff001916610100179055565b3332146111645760405162461bcd60e51b81526020600482015260126024820152712737ba1030b63637bbb2b21037b934b3b4b760711b604482015260640161098d565b6014546301000000900460ff166111bd5760405162461bcd60e51b815260206004820152601e60248201527f4379626572576f6a616b7a3a205075626c696353616c65206973204f46460000604482015260640161098d565b60145460ff16156112105760405162461bcd60e51b815260206004820152601f60248201527f4379626572576f6a616b7a3a20436f6e74726163742069732070617573656400604482015260640161098d565b600081116112605760405162461bcd60e51b815260206004820152601860248201527f4379626572576f6a616b7a3a207a65726f20616d6f756e740000000000000000604482015260640161098d565b600061126b60165490565b60115490915061127b838361274f565b11156112c95760405162461bcd60e51b815260206004820181905260248201527f4379626572576f6a616b7a3a204d617820737570706c79206578636565646564604482015260640161098d565b34826112d460155490565b6112de9190612867565b11156113375760405162461bcd60e51b815260206004820152602260248201527f4379626572576f6a616b7a3a204e6f7420656e6f756768204d657469732073656044820152611b9d60f21b606482015260840161098d565b60005b82811015610ac35761134a611c53565b8061135481612886565b91505061133a565b6113663383611875565b6113825760405162461bcd60e51b815260040161098d906127b2565b61138e84848484611cd8565b50505050565b6006546001600160a01b031633146113be5760405162461bcd60e51b815260040161098d9061281c565b6014805460ff19811660ff90911615179055565b60138054610eff906126b8565b6000818152600260205260409020546060906001600160a01b031661145e5760405162461bcd60e51b815260206004820152602f60248201527f4552433732314d657461646174613a2055524920717565727920666f72206e6f60448201526e3732bc34b9ba32b73a103a37b5b2b760891b606482015260840161098d565b6000611468611d0b565b9050600081511161148857604051806020016040528060008152506114b6565b8061149284611d1a565b60136040516020016114a6939291906128a1565b6040516020818303038152906040525b9392505050565b6006546001600160a01b031633146114e75760405162461bcd60e51b815260040161098d9061281c565b8051610e779060139060208401906122ff565b6006546001600160a01b031633146115245760405162461bcd60e51b815260040161098d9061281c565b6014805463ff00000019811663010000009182900460ff1615909102179055565b60105460405163c455279160e01b81526001600160a01b03848116600483015260009281169190841690829063c45527919060240160206040518083038186803b15801561159257600080fd5b505afa1580156115a6573d6000803e3d6000fd5b505050506040513d601f19601f820116820180604052508101906115ca919061297a565b6001600160a01b031614156115e3576001915050610880565b6001600160a01b0380851660009081526005602090815260408083209387168352929052205460ff165b949350505050565b6006546001600160a01b0316331461163f5760405162461bcd60e51b815260040161098d9061281c565b6001600160a01b0381166116a45760405162461bcd60e51b815260206004820152602660248201527f4f776e61626c653a206e6577206f776e657220697320746865207a65726f206160448201526564647265737360d01b606482015260840161098d565b6116ad81611b32565b50565b600081815260046020526040902080546001600160a01b0319166001600160a01b03841690811790915581906116e582610e7b565b6001600160a01b03167f8c5be1e5ebec7d5bd14f71427d1e84f3dd0314c0f7b2291e5b200ac8c7c3b92560405160405180910390a45050565b6008546001600160a01b0384166000908152600a6020526040812054909183916117489086612867565b61175291906129ad565b61160d91906129c1565b804710156117ac5760405162461bcd60e51b815260206004820152601d60248201527f416464726573733a20696e73756666696369656e742062616c616e6365000000604482015260640161098d565b6000826001600160a01b03168260405160006040518083038185875af1925050503d80600081146117f9576040519150601f19603f3d011682016040523d82523d6000602084013e6117fe565b606091505b5050905080610ac35760405162461bcd60e51b815260206004820152603a60248201527f416464726573733a20756e61626c6520746f2073656e642076616c75652c207260448201527f6563697069656e74206d61792068617665207265766572746564000000000000606482015260840161098d565b6000818152600260205260408120546001600160a01b03166118ee5760405162461bcd60e51b815260206004820152602c60248201527f4552433732313a206f70657261746f7220717565727920666f72206e6f6e657860448201526b34b9ba32b73a103a37b5b2b760a11b606482015260840161098d565b60006118f983610e7b565b9050806001600160a01b0316846001600160a01b031614806119345750836001600160a01b031661192984610918565b6001600160a01b0316145b8061160d575061160d8185611545565b826001600160a01b031661195782610e7b565b6001600160a01b0316146119bb5760405162461bcd60e51b815260206004820152602560248201527f4552433732313a207472616e736665722066726f6d20696e636f72726563742060448201526437bbb732b960d91b606482015260840161098d565b6001600160a01b038216611a1d5760405162461bcd60e51b8152602060048201526024808201527f4552433732313a207472616e7366657220746f20746865207a65726f206164646044820152637265737360e01b606482015260840161098d565b611a286000826116b0565b6001600160a01b0383166000908152600360205260408120805460019290611a519084906129c1565b90915550506001600160a01b0382166000908152600360205260408120805460019290611a7f90849061274f565b909155505060008181526002602052604080822080546001600160a01b0319166001600160a01b0386811691821790925591518493918716917fddf252ad1be2c89b69c2b068fc378daa952ba7f163c4a11628f55a4df523b3ef91a4505050565b604080516001600160a01b038416602482015260448082018490528251808303909101815260649091019091526020810180516001600160e01b031663a9059cbb60e01b179052610ac3908490611e18565b600680546001600160a01b038381166001600160a01b0319831681179093556040519116919082907f8be0079c531659141344cd1fd0a4f28419497f9722a3daafe3b4186f6b6457e090600090a35050565b816001600160a01b0316836001600160a01b03161415611be65760405162461bcd60e51b815260206004820152601960248201527f4552433732313a20617070726f766520746f2063616c6c657200000000000000604482015260640161098d565b6001600160a01b03838116600081815260056020908152604080832094871680845294825291829020805460ff191686151590811790915591519182527f17307eab39ab6107e8899845ad3d59bd9653f200f220920489ca2b5937696c31910160405180910390a3505050565b60026007541415611ca65760405162461bcd60e51b815260206004820152601f60248201527f5265656e7472616e637947756172643a207265656e7472616e742063616c6c00604482015260640161098d565b6002600755611cb9601680546001019055565b6000611cc460165490565b9050611cd03382611eea565b506001600755565b611ce3848484611944565b611cef84848484611f04565b61138e5760405162461bcd60e51b815260040161098d906129d8565b606060128054610895906126b8565b606081611d3e5750506040805180820190915260018152600360fc1b602082015290565b8160005b8115611d685780611d5281612886565b9150611d619050600a836129ad565b9150611d42565b60008167ffffffffffffffff811115611d8357611d83612527565b6040519080825280601f01601f191660200182016040528015611dad576020820181803683370190505b5090505b841561160d57611dc26001836129c1565b9150611dcf600a86612a2a565b611dda90603061274f565b60f81b818381518110611def57611def612851565b60200101906001600160f81b031916908160001a905350611e11600a866129ad565b9450611db1565b6000611e6d826040518060400160405280602081526020017f5361666545524332303a206c6f772d6c6576656c2063616c6c206661696c6564815250856001600160a01b03166120119092919063ffffffff16565b805190915015610ac35780806020019051810190611e8b9190612a3e565b610ac35760405162461bcd60e51b815260206004820152602a60248201527f5361666545524332303a204552433230206f7065726174696f6e20646964206e6044820152691bdd081cdd58d8d9595960b21b606482015260840161098d565b610e77828260405180602001604052806000815250612020565b60006001600160a01b0384163b1561200657604051630a85bd0160e11b81526001600160a01b0385169063150b7a0290611f48903390899088908890600401612a5b565b602060405180830381600087803b158015611f6257600080fd5b505af1925050508015611f92575060408051601f3d908101601f19168201909252611f8f91810190612a98565b60015b611fec573d808015611fc0576040519150601f19603f3d011682016040523d82523d6000602084013e611fc5565b606091505b508051611fe45760405162461bcd60e51b815260040161098d906129d8565b805181602001fd5b6001600160e01b031916630a85bd0160e11b14905061160d565b506001949350505050565b606061160d8484600085612053565b61202a8383612184565b6120376000848484611f04565b610ac35760405162461bcd60e51b815260040161098d906129d8565b6060824710156120b45760405162461bcd60e51b815260206004820152602660248201527f416464726573733a20696e73756666696369656e742062616c616e636520666f6044820152651c8818d85b1b60d21b606482015260840161098d565b6001600160a01b0385163b61210b5760405162461bcd60e51b815260206004820152601d60248201527f416464726573733a2063616c6c20746f206e6f6e2d636f6e7472616374000000604482015260640161098d565b600080866001600160a01b031685876040516121279190612ab5565b60006040518083038185875af1925050503d8060008114612164576040519150601f19603f3d011682016040523d82523d6000602084013e612169565b606091505b50915091506121798282866122c6565b979650505050505050565b6001600160a01b0382166121da5760405162461bcd60e51b815260206004820181905260248201527f4552433732313a206d696e7420746f20746865207a65726f2061646472657373604482015260640161098d565b6000818152600260205260409020546001600160a01b03161561223f5760405162461bcd60e51b815260206004820152601c60248201527f4552433732313a20746f6b656e20616c7265616479206d696e74656400000000604482015260640161098d565b6001600160a01b038216600090815260036020526040812080546001929061226890849061274f565b909155505060008181526002602052604080822080546001600160a01b0319166001600160a01b03861690811790915590518392907fddf252ad1be2c89b69c2b068fc378daa952ba7f163c4a11628f55a4df523b3ef908290a45050565b606083156122d55750816114b6565b8251156122e55782518084602001fd5b8160405162461bcd60e51b815260040161098d9190612423565b82805461230b906126b8565b90600052602060002090601f01602090048101928261232d5760008555612373565b82601f1061234657805160ff1916838001178555612373565b82800160010185558215612373579182015b82811115612373578251825591602001919060010190612358565b5061237f929150612383565b5090565b5b8082111561237f5760008155600101612384565b6001600160e01b0319811681146116ad57600080fd5b6000602082840312156123c057600080fd5b81356114b681612398565b60005b838110156123e65781810151838201526020016123ce565b8381111561138e5750506000910152565b6000815180845261240f8160208601602086016123cb565b601f01601f19169290920160200192915050565b6020815260006114b660208301846123f7565b60006020828403121561244857600080fd5b5035919050565b6001600160a01b03811681146116ad57600080fd5b6000806040838503121561247757600080fd5b82356124828161244f565b946020939093013593505050565b6000602082840312156124a257600080fd5b81356114b68161244f565b6000806000606084860312156124c257600080fd5b83356124cd8161244f565b925060208401356124dd8161244f565b929592945050506040919091013590565b6000806040838503121561250157600080fd5b823561250c8161244f565b9150602083013561251c8161244f565b809150509250929050565b634e487b7160e01b600052604160045260246000fd5b600067ffffffffffffffff8084111561255857612558612527565b604051601f8501601f19908116603f0116810190828211818310171561258057612580612527565b8160405280935085815286868601111561259957600080fd5b858560208301376000602087830101525050509392505050565b6000602082840312156125c557600080fd5b813567ffffffffffffffff8111156125dc57600080fd5b8201601f810184136125ed57600080fd5b61160d8482356020840161253d565b80151581146116ad57600080fd5b6000806040838503121561261d57600080fd5b82356126288161244f565b9150602083013561251c816125fc565b6000806000806080858703121561264e57600080fd5b84356126598161244f565b935060208501356126698161244f565b925060408501359150606085013567ffffffffffffffff81111561268c57600080fd5b8501601f8101871361269d57600080fd5b6126ac8782356020840161253d565b91505092959194509250565b600181811c908216806126cc57607f821691505b602082108114156126ed57634e487b7160e01b600052602260045260246000fd5b50919050565b60208082526026908201527f5061796d656e7453706c69747465723a206163636f756e7420686173206e6f2060408201526573686172657360d01b606082015260800190565b634e487b7160e01b600052601160045260246000fd5b6000821982111561276257612762612739565b500190565b6020808252602b908201527f5061796d656e7453706c69747465723a206163636f756e74206973206e6f742060408201526a191d59481c185e5b595b9d60aa1b606082015260800190565b60208082526031908201527f4552433732313a207472616e736665722063616c6c6572206973206e6f74206f6040820152701ddb995c881b9bdc88185c1c1c9bdd9959607a1b606082015260800190565b60006020828403121561281557600080fd5b5051919050565b6020808252818101527f4f776e61626c653a2063616c6c6572206973206e6f7420746865206f776e6572604082015260600190565b634e487b7160e01b600052603260045260246000fd5b600081600019048311821515161561288157612881612739565b500290565b600060001982141561289a5761289a612739565b5060010190565b6000845160206128b48285838a016123cb565b8551918401916128c78184848a016123cb565b630be8aa8960e31b92019182528454600490600090600181811c90808316806128f157607f831692505b86831081141561290e57634e487b7160e01b855260228652602485fd5b808015612922576001811461293757612968565b60ff1985168988015283890187019550612968565b60008c81526020902060005b8581101561295e5781548b82018a0152908401908901612943565b505086848a010195505b50939c9b505050505050505050505050565b60006020828403121561298c57600080fd5b81516114b68161244f565b634e487b7160e01b600052601260045260246000fd5b6000826129bc576129bc612997565b500490565b6000828210156129d3576129d3612739565b500390565b60208082526032908201527f4552433732313a207472616e7366657220746f206e6f6e20455243373231526560408201527131b2b4bb32b91034b6b83632b6b2b73a32b960711b606082015260800190565b600082612a3957612a39612997565b500690565b600060208284031215612a5057600080fd5b81516114b6816125fc565b6001600160a01b0385811682528416602082015260408101839052608060608201819052600090612a8e908301846123f7565b9695505050505050565b600060208284031215612aaa57600080fd5b81516114b681612398565b60008251612ac78184602087016123cb565b919091019291505056fea264697066735822122084b5f58fe389a187832fec170ad7ae02e0cbca678bdd88334a329e5a810d246464736f6c63430008090033",
  "linkReferences": {},
  "deployedLinkReferences": {}
}